:020000040800F2
:100000004007002001010008132400086D220008A9
:100010001124000853090008712B0008000000009B
:10002000000000000000000000000000372400086D
:10003000350B0008000000003524000839240008B2
:100040001B0100081B0100081B0100081B01000820
:100050001B0100081B0100081B0100081B01000810
:100060001B0100081B0100081B0100081B01000800
:100070001B0100081B0100081B0100081B010008F0
:100080001B0100081B0100081B010008592B000878
:10009000652B00081B0100081B0100081B0100085C
:1000A0001B0100081B0100081B0100081B010008C0
:1000B000F92400081B0100081B0100081B010008AF
:1000C0001B0100081B0100081B0100081B010008A0
:1000D0001B0100081B010008412B00084D2B0008E4
:1000E0001B0100081B0100081B010008DFF80CD0F1
:1000F00000F0FCFB00480047A53400084007002042
:100100000648804706480047FEE7FEE7FEE7FEE7B1
:10011000FEE7FEE7FEE7FEE7FEE7FEE7B1240008A4
:10012000ED000008202A04DB203A21FA02F0002129
:10013000704721FA02F3D040C2F1200291400843F7
:1001400019467047F0B480EA0102D40F4200B2EBC6
:10015000410F02D20246084611464A0042D0C30D62
:10016000DDB2C1F3C752AD1A202D35DAC1F3160145
:1001700041F4000204B15242C5F1200602FA06F130
:100180002A411044B3EBD05F23D0C4B1012DA0EBC2
:10019000C35009DCF0BC4FF0004202EAC352DBB2AC
:1001A00000F5000000F040BA400000F1807000EB64
:1001B000C350A0F1807040EAD170490009E04908BD
:1001C00041EAC071A0EBC35000F50000400800EB0D
:1001D000C350F0BC00F01FBA6142012202EB4101A2
:1001E000001BF6E7F0BC704781F00041AAE780F001
:1001F0000040A7E780EA010210B502F0004340008A
:1002000022D04A001FD0010E01EB1261C0F356004C
:10021000C2F3560240F4000042F40002A0FB0220A8
:1002200000047F39140400D0401C50EA124001D46D
:100230004000491EC2B20C0604EBD010401C40081E
:10024000802A02D003E0002010BD20F00100002928
:1002500000DA0020184310BD30B480EA010202F039
:10026000004530F0004221F0004013D090B1C30DA2
:10027000D40DC2F31601C0F31600E41A41F40001D4
:1002800040F400027D34914201D3641C00E0490037
:10029000002C02DA30BC002070474FF4000000232D
:1002A000914201D3891A034340084FEA4101F7D133
:1002B00051B1914202D14FF0004105E002D24FF01E
:1002C000010101E06FF0010103EBC450284430BC90
:1002D00000F0A1B9420005D0C0F3C752524291428A
:1002E00001DC0020704700EBC15070472DE9FE4F44
:1002F00081EA030404F0004421F0004100944FF02F
:10030000000B23F0004350EA01045ED052EA0304DC
:100310005BD0C3F30A54C1F30A552C44A4F2F3345E
:100320000194A0FB0254C1F3130141F48011C3F303
:10033000130343F4801301FB024400FB034E840AC1
:10034000970A44EA815447EA8357A4FB0768029559
:100350008D0A05FB07854FEA932C04FB0C542705F7
:10036000029D4FEA065847EA1637B5EB08056EEBD3
:10037000070C870E920E47EA811742EA8312A7FB09
:100380000201B6EB0B0164EB00042B0D43EA0C33C6
:100390005E1844EB1C50DA465146E7FB0201C5F3F8
:1003A00013044FEA0B3343EA14534FEA0432019C1F
:1003B00043EA0603A4F10C040294009CCDE900B4C6
:1003C00000F06FF903B0BDE8F08F00200146F9E7B7
:1003D0002DE9F04D81EA030404F0004B21F00045C3
:1003E00014464FF0000A23F0004150EA050220D0E5
:1003F00054EA01021DD0C5F30A570246C5F31303A0
:10040000C1F31300C1F30A5640F4801543F480137E
:10041000A7EB0608101BD64608F2FD3873EB050063
:1004200002D308F1010801E092185B41B8F1000F16
:1004300003DA00200146BDE8F08D00204FF4801162
:10044000064684460EE0171B73EB050705D3121B07
:1004500063EB050306434CEA010C49084FEA300000
:1004600092185B4150EA0107EDD152EA030012D025
:1004700082EA040083EA0501084305D0101BAB4162
:1004800006D20122002306E000224FF0004302E0E2
:100490006FF0010253101AEB06004CEB085110EB01
:1004A0000A0041EB0B01BDE8F04D00F0EBB8C10FC5
:1004B00080EAE0700844CA079623002100F0B4B82F
:1004C0000EB5C10F80EAE0700844CA07002140F26F
:1004D00033438DE80E000A460B4600F0E2F803B005
:1004E00000BD00F0004220F00040C10DC0F3160036
:1004F00040F400007F2901DA00207047962903DCD0
:10050000C1F19601C84001E096398840002AF4D034
:100510004042704700F0004230F000400AD0C10D68
:1005200001F56071C0F3160042EA0151C2084007AC
:100530001143704700200146704701F0004330B47A
:1005400021F0004150EA010206D00A0DA2F56072C6
:10055000C1F31301002A02DC30BC00207047440FB5
:1005600044EAC104C100E01830BC00EBC25000F006
:1005700052B80000002801DBC0F10040002901DB77
:10058000C1F100418842704730B50B46014600205A
:100590002022012409E021FA02F59D4205D303FA45
:1005A00002F5491B04FA02F52844151EA2F10102C6
:1005B000F1DC30BD2DE9F05F0546002092469B46F8
:1005C00088460646814640241BE028464146474669
:1005D0002246FFF7A7FD53465A46C01A914110D351
:1005E00011461846224600F093F92D1A67EB0108D0
:1005F0004F4622460120002100F08AF917EB00093E
:100600004E41201EA4F10104DFDC484631462A4653
:100610004346BDE8F09F0029A8BF7047401C490031
:1006200008BF20F00100704710B4B0FA80FC00FA57
:100630000CF050EA010404BF10BC704749B1CCF182
:10064000200421FA04F411FA0CF118BF012121430E
:100650000843A3EB0C01CB1D4FEA00614FEA1020C9
:1006600042BF002010BC704700EBC350104400296B
:10067000A4BF10BC7047401C490008BF20F0010017
:1006800010BC704710B5141E73F1000408DA401C4A
:1006900041F1000192185B411A4301D120F00100A1
:1006A00010BD2DE9F04D92469B4611B1B1FA81F291
:1006B00002E0B0FA80F22032904600F029F90446B8
:1006C0000F4640EA0A0041EA0B0153465A460843E6
:1006D00013D0114653EA010019D0C8F14002504628
:1006E000FFF720FD05460E4650465946424600F0AB
:1006F0000FF9084305D0012004E020463946BDE843
:10070000F08D0020054346EAE0762C4337430A98F3
:100710006305E40AA0EB08000022FD0A44EA4754FE
:100720000A3002D500200146E9E7010510196941A8
:10073000DDE9084500196941BDE8F04DA2E72DE962
:10074000FE4F804681EA0300C00F0C46009021F066
:10075000004123F00045B8EB0200A94105D2404614
:10076000214690461C460B46024623F000401043AB
:1007700047D0270DC7F30A00C3F30A510290401A6D
:10078000019040286BDAC3F3130040F4801B0098FB
:10079000924620B10023D2EB030A63EB0B0B0198C6
:1007A0005946C0F14002504600F0B2F806460D46E8
:1007B00050465946019A00F0BAF810EB0800614122
:1007C000002487EA115284EAE7731A4340D0009A62
:1007D00062B3019A012A4FEA075215DC001B61EB54
:1007E00002014FF0004202EA0752CDE90042001C2C
:1007F00041F5801132462B46FFF753FF03B0BDE8A9
:10080000F08F40462146F9E7001B61EB0201001C16
:1008100041F5801300185B412018A2F5001747EB43
:10082000030140EAD570B6196D4111E06D084FEA39
:10083000360645EAC0754FEA0752001B61EB02011C
:10084000001C41F5801149084FEA30000019514160
:1008500032462B4603B0BDE8F04FFFF713BF0098B8
:10086000012240000023D0EB020263EBE07300980A
:1008700021464FEAE074B8EB000061EB0401E9E7C0
:1008800083F000435BE781F0004158E7C1F30A526F
:10089000C1F3130140F2FF3341F480119A4202DAAE
:1008A00000200146704740F233439A42A2F233429D
:1008B00002DC5242FFF736BC00F02AB830B5041E05
:1008C00071F1000404DB4FF00044404264EB01018D
:1008D000141E73F1000405DB1C464FF00043524226
:1008E00063EB0403994208BF904230BD064C074DAC
:1008F00006E0E06840F0010394E8070098471034F0
:10090000AC42F6D3FFF7F6FBD0350008F03500080F
:10091000202A04DB203A00FA02F1002070479140BF
:10092000C2F1200320FA03F3194390407047202AB4
:1009300006DBCB17203A41FA02F043EAE07306E007
:1009400041FA02F3D040C2F1200291400843194617
:100950007047FEE710B5002958D0826B4FF4D8736A
:10096000046803EB0113E45814F004049460046871
:10097000E4584DD0E40854600468E35803F00203DF
:10098000D3604FF4DA73046803EB0113E45804F006
:100990000F04146111620468E358C3F30723D361A1
:1009A0004FF4DC73046803EB0113E4581475046816
:1009B000E458240A54750468E458240C94750468B7
:1009C000E3581B0ED3754FF4DE73046803EB011379
:1009D000E45814760468E458240A54760468E45809
:1009E000240C94760468E3581B0ED3760368202207
:1009F00089B11A610268536923F05003536190F87A
:100A00003C20222A0DD0322A0BD00FE0426BA5E702
:100A1000640D1460B0E7DA600268536923F00A03DA
:100A2000ECE70268536923F40F4353611222012358
:100A3000002990F83C1006D0522915D0622916D012
:100A4000722906D115E042290ED0622908D07229F8
:100A500008D080F83C3000BF00F0D4FA002010BD70
:100A6000322107E0522105E080F83C20F4E7222102
:100A700000E0422180F83C10EEE7000030B52C4940
:100A80002A4A8B78D0545B1CD8B288701478002323
:100A9000552C49D10B2848D3547801F18000503CA3
:100AA0000A2C41D2DFE804F0050B11171D23292F72
:100AB000353B52F8020F88645068C86434E052F83D
:100AC000020F0865506848652EE052F8020F8865ED
:100AD0005068C86528E052F8020F086650684866FA
:100AE00022E052F8020F88665068C8661CE052F88F
:100AF000020F08675068486716E052F8020F8867CF
:100B00005068C86710E052F8024F046052684260B3
:100B10000AE052F8024F84605268C26004E052F862
:100B2000024F0461526842618B7030BD4001002069
:100B30000400002070470000F0B50C7D012303FA8B
:100B400004F20468D4F800524E6A25F47C5503EB95
:100B500006231D43C4F800520368D3F81C42944393
:100B6000C3F81C424FF41073CD691C1DBDB9056854
:100B7000D5F80C629643C5F80C628E894D684F69B2
:100B800066F31F45066803EBC707F5510E890D682C
:100B90004F6966F31F45066804EBC707F551CD6939
:100BA000012D17D10568D5F80C621643C5F80C6203
:100BB0000E884D684F6966F31F45066803EBC7034F
:100BC000F5500D89CB684E6965F31F43056804EB4A
:100BD000C6042B518B69002B0368D3F8044211D053
:100BE00054EA0204C3F804420B69002B0368D3F8EB
:100BF000144209D054EA0204C3F81442096A0129D4
:100C000004D009E09443EDE79443F5E70168D1F897
:100C10001C321343C1F81C320068D0F8001221F0D6
:100C20000101C0F800120020F0BD70472DE9F0412D
:100C3000044600680026C168C1F300134169C1F38E
:100C4000C002102113B10AB14E01C16020680269CF
:100C50004369C2F30012C3F380131AB113B146F40F
:100C600080660161216848694FF00105C043C007F3
:100C70004ED18A687648904323D000208B68754A0D
:100C80009A4320D000228F68734BBB431DD00023B2
:100C9000104318433CD088688A68C0F340008B68D2
:100CA000C2F3402203F001031043184329D04A69DC
:100CB000204622F001024A6194F83C10122906D025
:100CC0000AE00120DAE70122DDE70123E0E701681D
:100CD0004A6922F40F424A6190F83C10422908D038
:100CE000522908D0722908D080F83C5000F09EFAB2
:100CF00009E0222102E0322100E0622180F83C106C
:100D0000F4E746F4006620688168544A1143816024
:100D10002168C868496910F0030FC1F3400104D08D
:100D200019B100212046FFF715FE216808694969BD
:100D300010F0030FC1F3001104D019B101212046B6
:100D4000FFF708FE206C3043206420688169426907
:100D500011F0010F4369C2F30022C3F3C03305D081
:100D600022B11BB1216C41F0010121648169C1F301
:100D700040034169C1F340224169C1F3C0312BB145
:100D800022B119B1216C41F0020121648169C1F3E2
:100D9000800341694269C1F38021C2F3C0322BB1A3
:100DA00021B11AB1216C41F004012164816911F073
:100DB000700F08D000224169C1F3C0234169C1F31B
:100DC000C03112B121E00122F5E7F3B1E9B1816947
:100DD00001F0700140292FD006DC102909D020290C
:100DE0000BD030290DD123E0502929D0602908D11A
:100DF0002AE0216C41F0080102E0216C41F0100171
:100E00002164816921F070018161206C00280DD07E
:100E100021680420486084F83C502068416948F605
:100E20005B72914341612046FFF7FFFEBDE8F08110
:100E3000216C41F02001E3E7216C41F04001DFE744
:100E4000216C41F08001DBE7216C41F48071D7E730
:100E50000100000400010008000001100905010064
:100E60002DE9F04104004FF0000504D094F83C0057
:100E7000002618B107E00120BDE8F08184F83D604C
:100E8000204600F083F8022084F83C0020680168C6
:100E900021F0020101602068016841F00101016058
:100EA00000F0F0FA07464FF0030804E000F0EAFA19
:100EB000C01B0A2853D820684068C007F6D02168B4
:100EC0004868C00758D0A069012801D145F08005C5
:100ED000E06901282FD025F04000226A012A2DD098
:100EE00020F02000626A012A2BD020F01000A26AB4
:100EF000012A29D020F00800E26A012A27D020F038
:100F000004000A6822F0FC0202430A60D4E90201EC
:100F10000843D4E90412114308436168491E084399
:100F20002168C8612068016821F00101016000F0BA
:100F3000A9FA054618E045F04000CEE740F0200051
:100F4000D0E740F01000D2E740F00800D4E740F0CE
:100F50000400D6E700F096FA401B0A2804D904F8EA
:100F60003C8F0320667087E720684068C007F1D196
:100F700020684068C00703D0042084F83C007AE76A
:100F80002664012084F83C00002075E710B5006855
:100F9000194986B088422DD11848C16941F00071C5
:100FA000C161C069164C00F0007004904FF40060FD
:100FB00000900020019002906946204600F084F9DC
:100FC000A01400900220019003200390694620465F
:100FD00000F07AF900221146132000F0E7FA1320FE
:100FE00000F0D8FA00221146142000F0DFFA142095
:100FF00000F0D0FA06B010BD0064004000100240BE
:1010000000080140426B1168A1F50073013B05D057
:10101000012B03D0022B01D0032B14D10D4B491E01
:10102000C9B21970928A53BA01EB41020A4921F8F8
:101030001230436B01EB4201DB8A5BBA4B80406BA1
:10104000008B40BA888005480068416941F0020180
:101050004161704700000020280100203C02002070
:101060002DE9F05F0E46016804468868400105D40A
:101070008868000102D48868C0006FD594F83D00EC
:1010800001280CD0012784F83D7094F83C002228F8
:1010900008D0322808D062280ED0122005E00220A5
:1010A000BDE8F09F422000E0522084F83C008868B0
:1010B000400103D5002507E07220F6E788680001AB
:1010C00001D5012500E002254FF4C07000EB0510AA
:1010D0000A5802F001020A50216B8A68EAB3D4F878
:1010E00000C05CF800301343CA68496842EAC10195
:1010F0000B434CF80030216B0A7C02F00F020A61AE
:101100004FF4C271226801EB0511535823F00F030D
:10111000535022685358D4F830C0DCF810C043EA6A
:101120000C035350216B4FF4C47303EB05130A7D7A
:10113000D1F8151042EA01222168CA50216B4FF400
:10114000C67303EB05130A7ED1F8191042EA012297
:101150002168CA5021680A5801E00DE05AE042F0C7
:1011600001020A5000F08EF981464FF00008DFF8C6
:10117000B0A0DFF8B0B026E022681358D1F80CC058
:10118000098843EA0C0343EA41511150B3E7701C4C
:1011900019D02EB100F076F9A0EB0900B04212D9B7
:1011A000032084F83C004DB1012D09D04FF400001C
:1011B0002168886084F83D80032071E78020F7E78C
:1011C0004FF40040F4E7ADB12068012D816816D0DE
:1011D000154888430028DAD194F83C00422811D001
:1011E000522811D0722813D084F83C7084F83D80C6
:1011F000002055E7206881682AEA0100EAE72BEA27
:101200000100E7E7222000E0322084F83C00EDE70F
:101210006220FAE7042084F83C00012040E7000047
:1012200001000004000100080000011070470000E8
:1012300010B590F821100024022903D00421816305
:1012400001243DE001680A6822F00E020A6001688C
:101250000A6822F001020A601A4A0168914201D12B
:10126000012121E0174A1432914201D110211BE0E3
:10127000144A2832914201D1891515E0114A3C32B5
:10128000914201D189140FE00E4A5032914202D1AD
:101290004FF4803108E00B4A6432914202D14FF49E
:1012A000801101E04FF08071064A083A5160012137
:1012B00080F82110002180F82010416B01B188478F
:1012C000204610BD080002402DE9F84FDFF890A13C
:1012D00000220AF1040B144601274FF00F090BF10D
:1012E000040E00BF0B6807FA04F52B40AB4274D123
:1012F000DFF870C14E68A6EB0C0866452BD00DDCFC
:10130000032E34D005DC36B3012E19D0022E2FD196
:101310001BE0112E16D0122E2AD119E0B8F5881F25
:1013200019D006DCB8F5803F15D0B8F5801F1FD165
:1013300011E0B8F5001F0ED0B8F5041F18D10AE06F
:10134000CA6815E0CA68121D12E0CA6808320FE0C8
:10135000CA680C320CE08A682AB1012A4FF00802F0
:1013600003D0456104E0042202E0056100E00022B0
:10137000FF2B01D8064601E000F104064FEA840580
:1013800001D9A5F12005D6F800C009FA05F82CEA24
:10139000080C02FA05F54CEA050CC6F800C04D68C9
:1013A000ED0057D5304DAE6946F00106AE61AD692E
:1013B00024F0030605F0010500952C4D06EB050C05
:1013C000DCF80850A6074FEA167809FA08F6B54384
:1013D000274EB04202D1002610E03BE0254EB0423D
:1013E00001D101260AE0244EB04201D1022605E0D7
:1013F000224EB04201D1032600E0042606FA08F688
:101400002E43CCF808604D68DAF80060ED035546CD
:1014100001D51E4300E09E432E604D68DBF800605E
:10142000AD035D4601D51E4300E09E432E604D682E
:10143000DEF80060ED02754601D51E4300E09E43D4
:101440002E604D68AD020E4D2E6801D51E4300E0A2
:101450009E432E60641C102CFFF444AFBDE8F88F4F
:101460000004014000001110001002400000014083
:1014700000080140000C0140001001400014014030
:101480000C0401400148806870470000AC00002057
:10149000024881680278114481607047AC000020E6
:1014A000074810B5016841F010010160032000F009
:1014B0009DF8002000F006F800F024F8002010BD90
:1014C0000020024070B50D4D04464FF47A71287823
:1014D000B1FBF0F00A490968B1FBF0F000F02DFB18
:1014E00048B9102C07D200222146501E00F05EF8A9
:1014F00000206C6070BD012070BD0000AC000020B9
:10150000B8000020214808B5816941F001018161DE
:10151000816901F001010091C16941F08051C1610F
:10152000C06900F080500090032000F05FF80022B6
:1015300011466FF00B0000F039F8002211466FF0F1
:101540000A0000F033F8002211466FF0090000F0A5
:101550002DF800221146501F00F028F800221146F5
:10156000101F00F023F800221146901E00F01EF814
:1015700000221146501E00F019F80548416821F07C
:10158000E06141F00071416008BD000000100240C0
:101590000000014000F01F0201219140400980003D
:1015A00000F1E020C0F8001170470000F0B40E4BCD
:1015B0001B680C46C3F30223C3F10705042D00D9B1
:1015C0000425191D072901D2002300E0DB1E012696
:1015D00006FA05F1491E214099409E40761E1640AC
:1015E0003143F0BC00F016BF0CED00E0064900F0FE
:1015F000070208684FF6FF03184040EA0220034A3A
:1016000010430860704700000CED00E00000FA0590
:101610002DE9F047DFF83C8105460E46D8F800007A
:1016200000F00700B0420CD2D8F8001021F00701FA
:101630003143C8F80010D8F8000000F00700B042AD
:1016400063D12878444C800705D56068A96820F0EC
:10165000F000084360602878C00745D0686801281A
:1016600016D02168022816D0890700294DDA616852
:1016700021F0030101436160FFF704FF6968074639
:1016800041F2883001290FD00229814619D027E084
:1016900021688903E9E78901E7E700BFFFF7F2FE68
:1016A000C11B494501D918E081466068C0F381003B
:1016B0000128F3D118E000BFFFF7E4FEC11B494544
:1016C0000BD86068C0F381000228F5D10CE000BFA0
:1016D000FFF7D8FEC11B494502D90320BDE8F087BA
:1016E000606810F00C0FF3D1D8F80010404601F0FC
:1016F0000701B1420BD9016821F0070131430160B4
:10170000006800F00700B04201D00120E6E7287829
:10171000400705D56068E96820F4E0600843606030
:101720002878000706D56068296920F4605040EAEF
:10173000C100606000F03CF86168084AC1F3031121
:10174000515CC840064908600020FFF7BBFE00203E
:10175000C4E700000020024000100240B835000835
:10176000B80000200148006870470000B800002061
:101770000448054900684968044AC1F30221515CE4
:10178000C8407047B800002000100240C83500086B
:101790000448054900684968044AC1F3C221515C04
:1017A000C8407047B800002000100240C83500084B
:1017B00012A185B00FC98DE80F0014A0144A00686B
:1017C00004905168134801F00C03042B10D0082B2F
:1017D0000ED1C1F38343C9031DF803000AD5516834
:1017E00004AAC1F34041515C0A4A5043B0FBF1F0F6
:1017F00005B0704708494843FAE7000002030405B2
:10180000060708090A0B0C0D0E0F1010010200004C
:101810000010024000127A0000093D002DE9F84F47
:1018200004460078B94DC00748D06868C0F381000D
:10183000012807D06868C0F38100022809D16868D0
:10184000C00306D52868800338D5606800286FD0AB
:1018500034E06068B0F5803F0BD010B1B0F5A02F38
:1018600011D0286820F480302860286820F4802077
:1018700002E0286840F480302860606888B1FFF793
:1018800001FE064609E0286840F480202860F0E761
:10189000FFF7F8FD801B642875D828688003F7D50A
:1018A0000CE0FFF7EFFD064605E000BFFFF7EAFD9D
:1018B000801B6428F0D828688003F7D42078944EE1
:1018C00080074FF001094FF000083BD5686810F021
:1018D0000C0F07D06868C0F38100022809D168683E
:1018E000C00306D42868800714D5206901281FD1B9
:1018F00010E02069B0B1C6F80090FFF7C3FD0746BD
:1019000005E000BFFFF7BEFDC01B0228C4D8286851
:101910008007F7D52868616920F0F80040EAC10027
:1019200028600FE0C6F80080FFF7ACFD074606E030
:10193000E9E000BFFFF7A6FDC01B022823D82868F6
:101940008007F7D4207800072CD57248A169D9B157
:10195000C0F80090FFF796FD074604E0FFF792FD00
:10196000C01B02280FD8686A8007F7D56A484FF471
:10197000FA510068B0FBF1F0009000BF0098411EE2
:101980000091FAD20EE080E0C0F80080FFF77AFD07
:10199000074604E0FFF776FDC01B022875D8686A89
:1019A0008007F7D42078400760D5E8690027C00099
:1019B00008D4E86940F08050E861E869012700F048
:1019C0008050009055480168C90513D401688346CA
:1019D00041F480710160FFF755FD824606E000BFCB
:1019E000FFF750FDA0EB0A0064284ED8DBF800009A
:1019F000C005F5D5E06801280AD008B1052813D044
:101A0000286A20F001002862286A20F0040002E021
:101A1000286A40F001002862E06841F2883B98B1F2
:101A2000FFF730FD82460BE0286A40F00400286290
:101A3000EEE700BFFFF726FDA0EB0A0159455AD893
:101A4000286A8007F6D50CE0FFF71CFD824605E00A
:101A5000FFF718FDA0EB0A0159454CD8286A80070A
:101A6000F6D41FB1E86920F08050E861E06988B3DE
:101A70006968C1F38101022945D00228C6F8608057
:101A800004D0FFF7FFFC044638E034E0FFF7FAFC2F
:101A9000074604E0FFF7F6FCC01B02282BD8286895
:101AA0008001F7D4206AB0F5803F05D16868A1684D
:101AB00020F4003008436860D4E9080108436968ED
:101AC00021F4741108436860C6F86090FFF7DAFCEF
:101AD000044606E015E000BFFFF7D4FC001B022817
:101AE00009D828688001F7D50BE000BFFFF7CAFCD2
:101AF000001B022802D90320BDE8F88F2868800166
:101B0000F4D40020F8E70120F6E7000000100240BE
:101B10000000424280044242B800002000700040B1
:101B20004FF0E0210428086903D020F00400086188
:101B3000704740F00400FAE7704710B5401EB0F15E
:101B4000807F01D3012010BD4FF0E02460610F21A0
:101B5000601700F05FFC0020A061072020610020DA
:101B600010BD10B5FFF7E8FF10BD7047704730B5E6
:101B700090F83C20012A20D0012280F83C2002234A
:101B800080F83D3003685C6824F070045C60036892
:101B90005C680D682C435C6003689C6824F08004DA
:101BA0009C6003689C6849680C439C6080F83D20F9
:101BB000002180F83C10084630BD022030BD10B531
:101BC000040003D094F83D0010B107E0012010BDDF
:101BD000002084F83C00204600F00CF8022084F835
:101BE0003D00211D206800F08DFC012084F83D009F
:101BF000002010BD08B50068B0F1804F12D10A482E
:101C0000C16941F00101C161C069002200F0010019
:101C1000009011461C20FFF7C9FCBDE808401C20BD
:101C2000FFF7B8BC08BD0000001002400168CA6898
:101C300042F00102CA600068016841F001010160E0
:101C40000020704770B5044690F83C00012817D07A
:101C5000012584F83C50022084F83D002068826809
:101C600022F0770222F47F4282600868502837D041
:101C70000DDC202859D005DC88B3102841D151E073
:101C8000022070BD302853D040283AD13FE0602870
:101C90002ED070280BD0B0F5805F03D0B0F5005F78
:101CA0002FD110E02068816821F0070115E0CB6892
:101CB000D1E90121206800F05BFC2168886840F0D0
:101CC000770088601DE0CB68D1E90121206800F031
:101CD0004FFC2068816841F48041816011E01EE082
:101CE000CA684968206800F055FC5021206806E069
:101CF000CA684968206800F05EFC6021206800F036
:101D000041FC84F83D50002084F83C0070BDCA6856
:101D10004968206800F03EFC40212068EFE7002180
:101D20002068ECE710212068E9E720212068E6E739
:101D300030212068E3E7704770B504460068016908
:101D40004FF00005C943890715D4C168C943890705
:101D500011D4E91E01610120207720688069800785
:101D6000204602D0FFF7E7FF04E000F098F8204695
:101D700000F096F8257720680169C943490717D410
:101D8000C168C943490713D46FF0040101610220FF
:101D900020772068806910F4407F204602D0FFF74A
:101DA000CAFF04E000F07BF8204600F079F82577C0
:101DB00020680169C943090716D4C168C9430907E6
:101DC00012D46FF008010161042020772068C069F7
:101DD0008007204602D0FFF7AEFF04E000F05FF876
:101DE000204600F05DF8257720680169C943C906DF
:101DF00017D4C168C943C90613D46FF0100101613B
:101E0000082020772068C06910F4407F204602D067
:101E1000FFF791FF04E000F042F8204600F040F8A0
:101E2000257720680169C943C90708D1C168C9433A
:101E3000C90704D1891E0161204600F033F82068EB
:101E40000169C943090609D4C168C943090605D413
:101E50006FF0800101612046FFF787FE206801696D
:101E6000C943490609D4C168C943490605D46FF07E
:101E700040010161204600F045F820680169C9432E
:101E800089060BD4C168C943890607D46FF02001C5
:101E900001612046BDE87040FFF768BE70BD704725
:101EA00070470000154900680968884224D1144829
:101EB0000178002920D00169491C01610179491C80
:101EC00001714179491C41718179491C8171C17944
:101ED000491CC171017A491C0172417A491C417245
:101EE000817A491C8172017B491C0173C17A491CAA
:101EF000C172416A491C41627047000080020020A3
:101F0000040000207047704770B5026804461068EE
:101F1000D168536910F00F0F51D003F0010501F49F
:101F2000907635435DD0C20705D0CA0503D5E26B74
:101F300042F00102E263420705D5DA0703D0E26B03
:101F400042F00202E263820705D5DA0703D0E26BB2
:101F500042F00402E263020705D5DA0703D0E26B20
:101F600042F00802E263E26B002A34D0800604D516
:101F7000880602D5204600F07BFC20684069E16BB2
:101F8000C0F3801001F008010143204624D000F086
:101F900061FC2068416949061AD5416921F0400178
:101FA0004161606BA0B11B494163606BFFF740F971
:101FB000002810D0606B416BBDE870400847830675
:101FC0000FD58B060DD52046BDE8704000F050BC03
:101FD0002046FFF798FF70BDFFF795FF0020E063F4
:101FE00070BD030606D50B0604D52046BDE870403B
:101FF00000F042BD4006F3D54806F1D5D168204631
:1020000021F04001D160202184F8391000F02DF931
:1020100070BD00004528000870B5040004D094F895
:102020003900002510B106E0012070BD84F8385059
:10203000204600F023F8242084F839002068C16885
:1020400021F40051C160204600F05EFC2068016967
:1020500021F4904101612068416921F02A01416128
:102060002068C16841F40051C160E563202084F814
:10207000390084F83A00002070BD000030B5274DCB
:102080000368002426480221032285B0AB421FD1F9
:10209000C36943F40033C361C069224D00F40030CA
:1020A00004900420CDE90001039269462846FFF719
:1020B0000BF90820CDE90004694628460294FFF791
:1020C00003F9002211462620FFF770FA262021E0AE
:1020D000154DAB4220D1C36943F48023C361C0696D
:1020E000039200F4802004902815CDE900010F4DE3
:1020F00069462846FFF7E8F8E814CDE90004694688
:1021000028460294FFF7E0F8002211462720FFF747
:102110004DFA2720FFF73EFA05B030BD00440040DD
:10212000001002400008014000480040000C01403F
:1021300090F83A30202B22D1F9B1F2B190F8383032
:10214000012B1CD081628285C2850021C1632222BD
:1021500080F83A2080F838100168CA6842F480722A
:10216000CA6001684A6942F001024A610068C168B8
:1021700041F02001C160002070470120704702201B
:102180007047000010B5084900680968884203D10B
:1021900006480078FEF772FCBDE8104001220349B2
:1021A0000148FFF7C5BF0000000300200700002022
:1021B0002DE9F843044690F839001F4616460D46AF
:1021C000202850D1A5B19EB194F8380001284AD0FA
:1021D000012084F838004FF00008C4F83C8021202A
:1021E00084F83900FFF74EF9A6848146E68426E09C
:1021F0000120BDE8F883E08C401EE084A0684B46D7
:10220000B0F5805F4FF000024FF08001204600974C
:1022100003D000F062FCE8B90DE000F05EFCC8B944
:1022200028882168C0F308004860206908B16D1C47
:1022300005E0AD1C03E0216815F8010B4860E08C57
:102240000028D8D14B46002240212046009700F0BC
:1022500044FC08B10320CCE7202084F8390084F83E
:1022600038800020C5E70220C3E77047FEE7000082
:10227000104810B50E4901600421416000214FF45F
:1022800080228160C0E90312D200C0E90521C1614A
:10229000016241628162C162FEF7E2FD002805D061
:1022A000BDE81040452104A000F063BC10BD000053
:1022B000006400403C0200202E2E2F5372632F63D7
:1022C000616E2E63000000000D4808B5816941F081
:1022D00020018161816901F020010091816941F053
:1022E00004018161816901F004010091816941F07B
:1022F00008018161806900F00800009008BD0000BD
:102300000010024010B5174886B04FF080410160C0
:1023100041F61F410024C0E901140921C0E903145A
:102320008461FFF74CFC18B13F210FA000F021FCA5
:102330004FF48050009069460A48FFF783FC18B1BB
:10234000452109A000F015FC049404A90548059452
:10235000FFF70DFC002803D04C2103A000F009FC7E
:1023600006B010BD800200202E2E2F5372632F74F2
:10237000696D2E63000000000D4810B50B49016027
:102380004FF4E1314160002181600C22C160C0E95D
:1023900004128161C161FFF73FFE002805D0BDE84E
:1023A0001040432103A000F0E4BB10BD00440040F6
:1023B000C00200202E2E2F5372632F75736172742A
:1023C0002E6300000D4810B50B4901604FF4E13158
:1023D0004160002181600C22C160C0E9041281616A
:1023E000C161FFF719FE002805D0BDE81040562155
:1023F00003A000F0BEBB10BD004800400003002059
:102400002E2E2F5372632F75736172742E6300002A
:10241000FEE770470907090E002806DA00F00F00F2
:1024200000F1E02080F8141D704700F1E02080F8F2
:10243000001470477047704710B5FFF729F8BDE8E2
:102440001040FFF78EBB30B58FB001210804CDE9F5
:1024500000100024029402250491CDE907504FF4A6
:10246000E01009906846FFF7D9F900B1FEE70F20A8
:10247000CDE90A054FF48060CDE90C4002210AA89D
:102480000E94FFF7C5F800B1FEE7FFF76BF94FF4C4
:102490007A71B0FBF1F0FFF750FB0420FFF740FB2F
:1024A00000221146501EFFF781F80FB030BD00002A
:1024B0000D48016841F00101016041680B4A11407B
:1024C000416001680A4A11400160016821F48021DD
:1024D0000160416821F4FE0141604FF41F018160F9
:1024E0000449C00308607047001002400000FFF874
:1024F000FFFFF6FE08ED00E00148FFF71DBC0000FD
:1025000080020020F0B50268164B174C174D4FF0B3
:102510008047984205D0B84203D0A04201D0A842DB
:1025200003D122F070064A683243984205D0B8427F
:1025300003D0A04201D0A84203D122F44074CA685B
:10254000224322F080044A69224302608A68C26200
:102550000A688262984201D10969016301214161DF
:10256000F0BD0000002C01400004004000080040C5
:1025700010B5846842EA032224F47F440A432243CC
:10258000826010BD826822F070020A4342F00701A7
:102590008160704710B5036A046A24F00104046284
:1025A000846924F0F00444EA021423F00A020A4386
:1025B0008461026210BD10B5036A23F01003036248
:1025C0008369046A23F4704343EA023224F0A003CF
:1025D00043EA01118261016210BD00002DE9F0475C
:1025E0003F48B0F90000FDF762FF6FF00E0421468E
:1025F000FDF770FEDFF8EC904946FDF7FBFD384D26
:10260000603D6969FDF7F0FD8246A86205F158005A
:10261000B0F90000FDF74BFF2146FDF75BFE3249A4
:10262000FDF7E8FD8046E8623048296C0088441ACE
:10263000002C01DD214600E06142B1F5805F08DB3E
:10264000002C03DDA4F5F854FF3C02E041F6FF71D5
:102650000C4428646878012801D100246C70A869B2
:10266000FDF758FF06460F466042FDF729FF00229E
:102670001F4BFDF7ADFE00221E4BFDF737FE00227B
:102680001D4BFDF7A5FE4FF0C0421C4BFDF72EFE83
:1026900032463B46FDF72AFE194A1A4BFDF798FED3
:1026A000FDF74BFF044628634E4649464046FDF77A
:1026B000D3FD154F3946FDF79DFD6863134920464C
:1026C000FDF798FDA96BFDF73DFDA8633146504627
:1026D000FDF7C2FD3946FDF78DFDE863BDE8F087E3
:1026E00064000020000034430000FA442801002068
:1026F00000FFBF400080764000806640FB2109401B
:10270000FCA9F1D24D62503FDB0F49406F12833A72
:102710002DE9FF413D4C04F19805616BE868FDF738
:1027200069FD8046A868216BFDF764FD074668686F
:10273000E16BFDF75FFD06462868A16BFDF75AFDCA
:102740003146FDF7FFFC3946FDF7FCFC4146FDF73D
:10275000F9FC80F000406064216AFDF70BFF01D2B4
:10276000206A6064206A616C80F00040FDF702FF1F
:1027700003D2206A80F0004060642549606CFDF758
:102780006BFD0E21FDF7A6FDFDF7ABFE01B2E18169
:10279000E06BB0F5000F01DA80F000401D4A904276
:1027A0000EDC1D4A41F28830B2F9023003F6C41340
:1027B000834205D8B2F9082002F6C412824209D930
:1027C00016A000F0D7F900231A461946184600F063
:1027D000BDFEF8E7002348421A4600B200F0B6FEFC
:1027E000606CFDF797FE07468846606BFDF792FE2A
:1027F00005460E46E06BFDF78DFE8DE8E0010246D2
:102800000B4608A000F0B6F9BDE8FF8104000020E7
:102810000000A041AB619C3F2801002073746F70E1
:102820000D0A00007468657461A3BA2566092074F6
:10283000686574615F6465743A25660925660D0AEA
:102840000000000010B5406A0021C185C184FFF777
:102850005AFB10BD0168CA6822F49072CA60016810
:102860004A6922F001024A61202180F83A1070473B
:1028700010B590F83A10222901D0022010BD8168CD
:10288000B1F5805F11D00169002901681FD0496846
:1028900001F07F03816A4A1C82620B70C18D491E60
:1028A0000904090CC18518D02BE00269816A002A4D
:1028B0000268526805D0D2B20A80816A491C8162DE
:1028C000ECE7C2F308020A80816A891CF7E74A68CC
:1028D000816A4B1C83620A70E0E70168CA6822F0D3
:1028E0002002CA600168CA6822F48072CA60016866
:1028F0004A6922F001024A61202180F83A10FFF76C
:1029000041FC002010BD00002DE9F04104460068A4
:102910000169E26821F44051114301612169A06815
:102920000843616908432168CA6841F20C639A430D
:102930000243CA6020684169A26921F440711143D1
:1029400041614C4920686425322688423CD1FEF71B
:102950001FFF00EBC00101EB001061688900B0FBB4
:10296000F1F7FEF715FF00EBC00101EB0010616805
:10297000B0468900B0FBF1F0B0FBF5F06FF0180144
:10298000484307EB800106EB0110B0FBF5F000F0C7
:10299000F006FEF7FDFE00EBC00101EB00106168E0
:1029A0008900B0FBF1F0B0FBF5F006EB0016FEF786
:1029B000EFFE00EBC00101EB001061688900B0FB85
:1029C000F1F7FEF7E5FE3BE0FEF7D2FE00EBC001BB
:1029D00001EB001061688900B0FBF1F7FEF7C8FE5B
:1029E00000EBC00101EB00106168B0468900B0FB4C
:1029F000F1F0B0FBF5F06FF01801484307EB8001F0
:102A000006EB0110B0FBF5F000F0F006FEF7B0FEAB
:102A100000EBC00101EB001061688900B0FBF1F030
:102A2000B0FBF5F006EB0016FEF7A2FE00EBC001CE
:102A300001EB001061688900B0FBF1F7FEF798FE2A
:102A400000EBC00101EB001061688900B0FBF1F000
:102A5000B0FBF5F06FF01801484307EB800108EB7D
:102A60000110B0FBF5F0216800F00F0030448860E1
:102A7000BDE8F0810038014090F83910212901D0DB
:102A8000022070478168B1F5805F016A0BD04A1C53
:102A90000262026809785160C18C491E0904090C60
:102AA000C1840ED017E009880268C1F308015160A3
:102AB00001690029016A02D0491C0162ECE7891C06
:102AC000FBE70168CA6822F08002CA600068C1683A
:102AD00041F04001C160002070472DE9F041984667
:102AE00017460E460446069D1DE0681C1BD02DB1FE
:102AF000FEF7C8FCA0EB0800A84214D92068C16802
:102B000021F4D071C1602068416921F00101416167
:102B1000202084F8390084F83A00002084F8380036
:102B20000320BDE8F0812068006836EA000004D088
:102B30000020B842D9D00020F3E70120F9E70000D7
:102B40000148FFF7E1B90000C00200200148FFF78B
:102B5000DBB90000000300200148FEF767B8000061
:102B60003C0200200148FEF761B800003C02002052
:102B7000FEE7FEE70FB4054B10B503A9044A02981F
:102B800000F0CAF810BC5DF814FB00008D3400089A
:102B9000BC00002002E008C8121F08C1002AFAD1B8
:102BA00070477047002001E001C1121F002AFBD1CD
:102BB000704700002DE9FF5FDDE90220010DDDF81F
:102BC00038B0024318D044F61050A1F2FF3141430F
:102BD0000D140F98012820D0A5EB0B00401C5FEAD4
:102BE000000A4FF00004474EDFF81C91A046504603
:102BF00016D5CAF1000728E00F98012443A2012846
:102C000008D0002100980F9BC0E90021C0E90243D1
:102C1000BDE8FF9F6FEA0B01F4E7CBF10000DEE7B0
:102C2000074612E0F80707D0224633464046494699
:102C3000FDF75CFB8046894622463346104619461E
:102C4000FDF754FB04460E467F10002FEAD1DDE964
:102C50000201BAF1000F42464B4602DAFDF746FB8D
:102C600001E0FDF7B5FB04460E460022284BFDF7B8
:102C700025FE03D84FF0FF30014607E00022254B28
:102C800020463146FDF75BFDFDF700FE102409E00C
:102C9000002C0ADB0A220023FDF78CFC019B30325A
:102CA0001A55641E50EA0102F2D1641C019AC4F163
:102CB000110314440F9A012A03D0012208430DD1B5
:102CC0000AE0084304D000204FF0110B0F9080E77A
:102CD000A3EB0B056D1E0DE05B4504DD4FF000021C
:102CE00005F1010504E003DA4FF00002A5F101054A
:102CF000002AECD000980F99C0E90231C0E90045E4
:102D000086E70000000024400000F03F3000000093
:102D10000000F0430000E03F2DE9FF4F95B09B46D7
:102D20008946064600250FE2252877D1002427464C
:102D3000F84A0121059400E0044316F8013F203BC6
:102D400001FA03F01042F7D130782A2811D06FF041
:102D50002F033078A0F13002092A16D8059A44F0E2
:102D6000020402EB820203EB42021044761C05903F
:102D7000EFE759F8042B0592002A03DA504244F495
:102D80000054059044F00204761C30782E2816D1A9
:102D900016F8010F44F004042A280DD06FF02F021A
:102DA0003078A0F13003092B09D807EB870302EB39
:102DB0004303C718761CF3E759F8047B761C307878
:102DC0006C280FD006DC4C2817D068280DD06A2854
:102DD00014D104E0742810D07A280FD10DE044F407
:102DE00000140AE044F4801401E044F440147278C2
:102DF000824202D104F58014761C761C3078662855
:102E00000BD013DC582877D009DC002875D0452872
:102E1000F6D04628F4D047281AD19DE118E063285F
:102E200035D0642879D0652812D195E1702873D007
:102E300008DC6728F1D069286FD06E280DD06F2884
:102E400006D1B5E073282CD0752875D0782874D0B9
:102E50005A46179990476D1C75E1C4F30250022839
:102E600009D003280DD0D9F8001004280DD00D602A
:102E700009F1040967E1D9F80010EA17C1E9005225
:102E8000F6E7D9F800100D80F2E70D70F0E719F8B9
:102E9000041B8DF8001000208DF80100EA46012087
:102EA00003E059F804AB4FF0FF3061074FF0000129
:102EB00002D40DE008F101018846B9420FDA8045DD
:102EC000F8DB1AF808100029F4D108E008F1010134
:102ED00088468142FADB1AF808100029F6D10598D5
:102EE0005B46A0EB080721463846179A00F094FA93
:102EF000284400EB080507E04DE029E10DE01AF851
:102F0000010B5A4617999047B8F10108F7D25B4672
:102F100021463846179A13E142E00A220092C4F390
:102F200002524FF0000A022A08D059F804CB032AB3
:102F30004FEAEC710AD00DE029E02AE009F107011F
:102F400021F00702F2E802C1914609E00FFA8CFC79
:102F50004FEAEC71042A03D14FFA8CFC4FEAEC7172
:102F6000002907DA0A460021DCF1000C61EB0201BE
:102F70002D2202E0220504D52B228DF80420012207
:102F800003E0E20701D02022F7E7904659E00A214A
:102F900002E010220DE010214FF0000A00910BE03A
:102FA00010224FF0000A44F004040827009203E0C6
:102FB00008224FF0000A0092C4F30252022A05D000
:102FC00059F804CB0021032A08D009E009F10701D0
:102FD00021F00702F2E802C1914605E01FFA8CFCDD
:102FE000042A01D10CF0FF0C4FF00008220728D56D
:102FF000702806D0009B83F0100353EA0A0305D023
:103000000EE040228DF80420012208E05CEA010273
:1030100006D030228DF804208DF80500022290465B
:10302000009B83F0080353EA0A030AD15CEA010219
:1030300001D1620705D530228DF804204FF0010838
:103040007F1E582804D034A003900EA802900DE0F3
:1030500036A0F9E753466046009AFDF7ABFA84467E
:103060000398825C0298401E029002705CEA0100A4
:10307000F0D1029806A9081A00F1200A600702D5CB
:1030800024F4803400E00127574502DDA7EB0A0055
:1030900000E0002000EB0A01009005984144401A2E
:1030A0000590E00306D45B462146179A059800F088
:1030B000B3F90544002706E001A85A46C05D1799F8
:1030C00090476D1C7F1C4745F6DBE0030CD55B4643
:1030D0002146179A059800F09FF9054404E0302036
:1030E0005A46179990476D1C0099481E0090002978
:1030F000F5DC08E0029802995A460078491C0291D2
:10310000179990476D1CBAF10001AAF1010AF1DC90
:1031100065E100000928010030313233343536379B
:103120003839616263646566000000003031323313
:1031300034353637383941424344454600000000B3
:1031400000F058F90544761C307800287FF4ECAD87
:1031500019B02846BDE8F08F620700D4062709F1B0
:10316000070222F0070CFCE80223E14603F00048C6
:103170005FEA080C02D00FF2702C0DE05FEA045CED
:1031800002D50FF2682C07E05FEAC47C02D00FF290
:10319000602C01E0AFF2700C4FF0FF3823F00043D9
:1031A000CDF850C065280CD006DC452809D046284B
:1031B0001DD047283DD13DE0662818D067287ED134
:1031C00038E00021112F01DB112000E0781CCDE94F
:1031D000000106A90EA8FFF7EDFCDDE90F010E9A2C
:1031E00003910021009207F1010A04914DE04FF094
:1031F00000400097CDE9011006A90EA8FFF7DAFC00
:10320000DDE90F0203920E9B11990022DDF80CA05C
:103210000093049211B9791C00EB010AB7EB0A0084
:1032200004D4C0F1FF3007F1010A0490AAEB0700B3
:10323000019044E0012F00DA01270021112F01DD68
:10324000112000E03846CDE9000106A90EA8FFF7DD
:10325000B1FCDDE90F010E9A039100210491009267
:10326000BA4621070CD40399514500DA8A46BAF1CF
:10327000010F05DD009AAAF10101515C302908D047
:10328000B84202DA10F1040F06DA0121CDE901108B
:1032900015E0AAF10101E9E7002805DC04990144E1
:1032A0000491AAEB000102E0411C514500DD8A4671
:1032B0000499401A401C01904FF0004002902007F2
:1032C00004D40198504501DBCDF8048000208DF82E
:1032D0004F0002980DF14F07B0F1004F25D02B2081
:1032E0000E9002984FF0020800280CDA404202903B
:1032F0002D200E9007E00A210298FDF745F93031A4
:10330000029007F8011DB8F10001A8F10108F2DCF4
:1033100002980028EFD1791E0E980870307800F0DE
:10332000200040F0450007F8020D12A8C01B00F174
:1033300007081498007800B1012000EB0A010198F9
:1033400001EBE07105984144401A401E0590E003EE
:1033500006D45B462146179A059800F05DF80544AF
:103360001498007818B15A46179990476D1CE003DD
:1033700024D55B462146179A059800F04DF8054480
:103380001CE00498002807DBDDE90301884203DD27
:103390000098405C179901E0179930205A469047F1
:1033A000049805F10105401C04900198401E01900D
:1033B00004D12E205A46179990476D1CBAF100018E
:1033C000AAF1010ADDDC05E017F8010B5A4617994E
:1033D00090476D1CB8F10001A8F10108F4DC5B46D0
:1033E0002146179A0598ABE62D0000002B0000003F
:1033F000200000002DE9F041044600251E46174636
:10340000880404D405E039462020B0476D1C641EB2
:10341000F9D52846BDE8F0812DE9F04104460025A4
:103420001E469046C80301D5302700E020278804B7
:1034300004D505E041463846B0476D1C641EF9D5F9
:103440002846BDE8F081000010B50F4C0D48002162
:1034500020631C306063443801224161C0E90612D8
:10346000016041608160C16001610E21C0E90821F5
:1034700001462046FDF760FB2068416941F00201EA
:10348000416110BDE80000203C02002013B54FF65A
:10349000FF73012269460248FEF78AFE00981CBDB0
:1034A000C0020020FDF7FCFFFEF7CDFFFEF70CFF8A
:1034B000FEF762FFFEF7DCFEFEF724FFFEF782FF59
:1034C0001F48FEF7B3FBFFF7BFFF01221D491E484F
:1034D000FEF72EFE1B4C0120E41E4FF47A7620707E
:1034E0000025207910B12571FFF778F8607902285E
:1034F00000D36571A079042800D3A571E07905286F
:1035000002D3E571FFF704F9207A0A2800D3257267
:10351000607A142800D36572A07A322800D3A5728D
:10352000207B642800D32573E07AC82800D3E57295
:10353000606AB042D5DB6562E069401CE061D0E7BB
:1035400080020020070000200003002070B5164C08
:103550004FF40075266B3560266B0025B560266B31
:10356000F560266B08253561266B050A3575256BD8
:103570006875256B080AA875206BC175216B100A48
:103580000876206B4276216B180A8876206B0A2118
:10359000C3762046FDF764FD002804D0BDE87040E6
:1035A00002A0FFF7E7BA70BD3C02002063616E5FC6
:1035B0006661696C656400000000000000000000A6
:1035C00001020304060708090000000001020304C9
:1035D000F035000800000020C0000000942B000817
:1035E000B0360008C000002080060000A42B0008B0
:1035F00000000000000100000000000000000000CA
:103600000000000000000000000000005C8F423D50
:103610000000000000002041000000000000000049
:10362000000000000000000000000000000000009A
:10363000000000000000000000000000000000008A
:10364000000000000000000000000000000000007A
:10365000000000000000000000000000000000006A
:10366000000000000000000000000000000000005A
:10367000000000000000000000000000000000004A
:10368000000000000000000000000000BAF516C0B5
:103690004EA401C11D77D3C0C0EBA5BF010000003F
:1036A000100000000000000000A24A04000000001A
:04000005080000ED02
:00000001FF
